{
  "contractName": "Authentication",
  "abi": [
    {
      "inputs": [],
      "stateMutability": "nonpayable",
      "type": "constructor"
    },
    {
      "inputs": [
        {
          "internalType": "uint256",
          "name": "",
          "type": "uint256"
        }
      ],
      "name": "courseDetails",
      "outputs": [
        {
          "internalType": "uint256",
          "name": "id",
          "type": "uint256"
        },
        {
          "internalType": "string",
          "name": "class",
          "type": "string"
        },
        {
          "internalType": "string",
          "name": "subject",
          "type": "string"
        }
      ],
      "stateMutability": "view",
      "type": "function"
    },
    {
      "inputs": [],
      "name": "nbOfUsers",
      "outputs": [
        {
          "internalType": "uint256",
          "name": "",
          "type": "uint256"
        }
      ],
      "stateMutability": "view",
      "type": "function"
    },
    {
      "inputs": [
        {
          "internalType": "uint256",
          "name": "_id",
          "type": "uint256"
        }
      ],
      "name": "find",
      "outputs": [
        {
          "internalType": "uint256",
          "name": "",
          "type": "uint256"
        }
      ],
      "stateMutability": "view",
      "type": "function"
    },
    {
      "inputs": [
        {
          "internalType": "string",
          "name": "_class",
          "type": "string"
        },
        {
          "internalType": "string",
          "name": "_subject",
          "type": "string"
        }
      ],
      "name": "insertCourse",
      "outputs": [],
      "stateMutability": "nonpayable",
      "type": "function"
    },
    {
      "inputs": [],
      "name": "getCourseIds",
      "outputs": [
        {
          "internalType": "uint256[]",
          "name": "",
          "type": "uint256[]"
        }
      ],
      "stateMutability": "view",
      "type": "function"
    },
    {
      "inputs": [
        {
          "internalType": "uint256",
          "name": "_id",
          "type": "uint256"
        }
      ],
      "name": "readCourseById",
      "outputs": [
        {
          "internalType": "uint256",
          "name": "",
          "type": "uint256"
        },
        {
          "internalType": "string",
          "name": "",
          "type": "string"
        },
        {
          "internalType": "string",
          "name": "",
          "type": "string"
        }
      ],
      "stateMutability": "view",
      "type": "function"
    },
    {
      "inputs": [
        {
          "internalType": "uint256",
          "name": "_id",
          "type": "uint256"
        },
        {
          "internalType": "string",
          "name": "_class",
          "type": "string"
        },
        {
          "internalType": "string",
          "name": "_subject",
          "type": "string"
        }
      ],
      "name": "updateCourseById",
      "outputs": [],
      "stateMutability": "nonpayable",
      "type": "function"
    },
    {
      "inputs": [
        {
          "internalType": "uint256",
          "name": "_id",
          "type": "uint256"
        }
      ],
      "name": "DeleteCourseById",
      "outputs": [
        {
          "internalType": "uint256",
          "name": "",
          "type": "uint256"
        }
      ],
      "stateMutability": "nonpayable",
      "type": "function"
    },
    {
      "inputs": [
        {
          "internalType": "string",
          "name": "_signature",
          "type": "string"
        }
      ],
      "name": "register",
      "outputs": [],
      "stateMutability": "nonpayable",
      "type": "function"
    },
    {
      "inputs": [],
      "name": "getSignatureHash",
      "outputs": [
        {
          "internalType": "string",
          "name": "",
          "type": "string"
        }
      ],
      "stateMutability": "view",
      "type": "function"
    },
    {
      "inputs": [],
      "name": "getUserAddress",
      "outputs": [
        {
          "internalType": "address",
          "name": "",
          "type": "address"
        }
      ],
      "stateMutability": "view",
      "type": "function"
    }
  ],
  "bytecode": "0x6080604052600160025534801561001557600080fd5b50600080819055506114b98061002c6000396000f3fe608060405234801561001057600080fd5b50600436106100a95760003560e01c8063a986e8a411610071578063a986e8a414610168578063bd4d382614610198578063c127ae41146101b4578063d1be5309146101d2578063ebc3eee814610204578063f2c298be14610222576100a9565b8063121a0720146100ae57806312679323146100e05780632359b7b8146100fe5780633e530e5b1461011c578063878ac68d1461014c575b600080fd5b6100c860048036038101906100c39190610e1f565b61023e565b6040516100d7939291906110f6565b60405180910390f35b6100e86103e6565b6040516100f591906110db565b60405180910390f35b6101066103ec565b6040516101139190611037565b60405180910390f35b61013660048036038101906101319190610e1f565b6104b0565b60405161014391906110db565b60405180910390f35b61016660048036038101906101619190610e4c565b61054b565b005b610182600480360381019061017d9190610e1f565b6105d2565b60405161018f91906110db565b60405180910390f35b6101b260048036038101906101ad9190610da7565b610633565b005b6101bc6106dd565b6040516101c99190611059565b60405180910390f35b6101ec60048036038101906101e79190610e1f565b61087f565b6040516101fb939291906110f6565b60405180910390f35b61020c6109c9565b604051610219919061101c565b60405180910390f35b61023c60048036038101906102379190610d5e565b610a33565b005b6000606080600061024e856104b0565b9050600181815481106102645761026361136e565b5b9060005260206000209060030201600001546001828154811061028a5761028961136e565b5b9060005260206000209060030201600101600183815481106102af576102ae61136e565b5b90600052602060002090600302016002018180546102cc90611264565b80601f01602080910402602001604051908101604052809291908181526020018280546102f890611264565b80156103455780601f1061031a57610100808354040283529160200191610345565b820191906000526020600020905b81548152906001019060200180831161032857829003601f168201915b5050505050915080805461035890611264565b80601f016020809104026020016040519081016040528092919081815260200182805461038490611264565b80156103d15780601f106103a6576101008083540402835291602001916103d1565b820191906000526020600020905b8154815290600101906020018083116103b457829003601f168201915b50505050509050935093509350509193909250565b60005481565b6060600060018054905067ffffffffffffffff81111561040f5761040e61139d565b5b60405190808252806020026020018201604052801561043d5781602001602082028036833780820191505090505b50905060005b6001805490508110156104a857600181815481106104645761046361136e565b5b9060005260206000209060030201600001548282815181106104895761048861136e565b5b60200260200101818152505080806104a0906112c7565b915050610443565b508091505090565b6000805b60018054905081101561050a5782600182815481106104d6576104d561136e565b5b90600052602060002090600302016000015414156104f75780915050610546565b8080610502906112c7565b9150506104b4565b506040517f08c379a000000000000000000000000000000000000000000000000000000000815260040161053d906110bb565b60405180910390fd5b919050565b6000610556846104b0565b9050826001828154811061056d5761056c61136e565b5b90600052602060002090600302016001019080519060200190610591929190610bf6565b5081600182815481106105a7576105a661136e565b5b906000526020600020906003020160020190805190602001906105cb929190610bf6565b5050505050565b6000806105de836104b0565b9050600181815481106105f4576105f361136e565b5b906000526020600020906003020160008082016000905560018201600061061b9190610c7c565b60028201600061062b9190610c7c565b505050919050565b6001604051806060016040528060025481526020018481526020018381525090806001815401808255809150506001900390600052602060002090600302016000909190919091506000820151816000015560208201518160010190805190602001906106a1929190610bf6565b5060408201518160020190805190602001906106be929190610bf6565b505050600260008154809291906106d4906112c7565b91905055505050565b6060600360003373ffffffffffffffffffffffffffffffffffffffff1673ffffffffffffffffffffffffffffffffffffffff16815260200190815260200160002060010160009054906101000a900473ffffffffffffffffffffffffffffffffffffffff1673ffffffffffffffffffffffffffffffffffffffff163373ffffffffffffffffffffffffffffffffffffffff16146107af576040517f08c379a00000000000000000000000000000000000000000000000000000000081526004016107a69061109b565b60405180910390fd5b600360003373ffffffffffffffffffffffffffffffffffffffff1673ffffffffffffffffffffffffffffffffffffffff16815260200190815260200160002060000180546107fc90611264565b80601f016020809104026020016040519081016040528092919081815260200182805461082890611264565b80156108755780601f1061084a57610100808354040283529160200191610875565b820191906000526020600020905b81548152906001019060200180831161085857829003601f168201915b5050505050905090565b6001818154811061088f57600080fd5b90600052602060002090600302016000915090508060000154908060010180546108b890611264565b80601f01602080910402602001604051908101604052809291908181526020018280546108e490611264565b80156109315780601f1061090657610100808354040283529160200191610931565b820191906000526020600020905b81548152906001019060200180831161091457829003601f168201915b50505050509080600201805461094690611264565b80601f016020809104026020016040519081016040528092919081815260200182805461097290611264565b80156109bf5780601f10610994576101008083540402835291602001916109bf565b820191906000526020600020905b8154815290600101906020018083116109a257829003601f168201915b5050505050905083565b6000600360003373ffffffffffffffffffffffffffffffffffffffff1673ffffffffffffffffffffffffffffffffffffffff16815260200190815260200160002060010160009054906101000a900473ffffffffffffffffffffffffffffffffffffffff16905090565b600073ffffffffffffffffffffffffffffffffffffffff16600360003373ffffffffffffffffffffffffffffffffffffffff1673ffffffffffffffffffffffffffffffffffffffff16815260200190815260200160002060010160009054906101000a900473ffffffffffffffffffffffffffffffffffffffff1673ffffffffffffffffffffffffffffffffffffffff1614610b04576040517f08c379a0000000000000000000000000000000000000000000000000000000008152600401610afb9061107b565b60405180910390fd5b80600360003373ffffffffffffffffffffffffffffffffffffffff1673ffffffffffffffffffffffffffffffffffffffff1681526020019081526020016000206000019080519060200190610b5a929190610bf6565b5033600360003373ffffffffffffffffffffffffffffffffffffffff1673ffffffffffffffffffffffffffffffffffffffff16815260200190815260200160002060010160006101000a81548173ffffffffffffffffffffffffffffffffffffffff021916908373ffffffffffffffffffffffffffffffffffffffff160217905550600080815480929190610bee906112c7565b919050555050565b828054610c0290611264565b90600052602060002090601f016020900481019282610c245760008555610c6b565b82601f10610c3d57805160ff1916838001178555610c6b565b82800160010185558215610c6b579182015b82811115610c6a578251825591602001919060010190610c4f565b5b509050610c789190610cbc565b5090565b508054610c8890611264565b6000825580601f10610c9a5750610cb9565b601f016020900490600052602060002090810190610cb89190610cbc565b5b50565b5b80821115610cd5576000816000905550600101610cbd565b5090565b6000610cec610ce784611160565b61113b565b905082815260208101848484011115610d0857610d076113d1565b5b610d13848285611222565b509392505050565b600082601f830112610d3057610d2f6113cc565b5b8135610d40848260208601610cd9565b91505092915050565b600081359050610d588161146c565b92915050565b600060208284031215610d7457610d736113db565b5b600082013567ffffffffffffffff811115610d9257610d916113d6565b5b610d9e84828501610d1b565b91505092915050565b60008060408385031215610dbe57610dbd6113db565b5b600083013567ffffffffffffffff811115610ddc57610ddb6113d6565b5b610de885828601610d1b565b925050602083013567ffffffffffffffff811115610e0957610e086113d6565b5b610e1585828601610d1b565b9150509250929050565b600060208284031215610e3557610e346113db565b5b6000610e4384828501610d49565b91505092915050565b600080600060608486031215610e6557610e646113db565b5b6000610e7386828701610d49565b935050602084013567ffffffffffffffff811115610e9457610e936113d6565b5b610ea086828701610d1b565b925050604084013567ffffffffffffffff811115610ec157610ec06113d6565b5b610ecd86828701610d1b565b9150509250925092565b6000610ee38383610ffe565b60208301905092915050565b610ef8816111e6565b82525050565b6000610f09826111a1565b610f1381856111c4565b9350610f1e83611191565b8060005b83811015610f4f578151610f368882610ed7565b9750610f41836111b7565b925050600181019050610f22565b5085935050505092915050565b6000610f67826111ac565b610f7181856111d5565b9350610f81818560208601611231565b610f8a816113e0565b840191505092915050565b6000610fa26012836111d5565b9150610fad826113f1565b602082019050919050565b6000610fc5600b836111d5565b9150610fd08261141a565b602082019050919050565b6000610fe86016836111d5565b9150610ff382611443565b602082019050919050565b61100781611218565b82525050565b61101681611218565b82525050565b60006020820190506110316000830184610eef565b92915050565b600060208201905081810360008301526110518184610efe565b905092915050565b600060208201905081810360008301526110738184610f5c565b905092915050565b6000602082019050818103600083015261109481610f95565b9050919050565b600060208201905081810360008301526110b481610fb8565b9050919050565b600060208201905081810360008301526110d481610fdb565b9050919050565b60006020820190506110f0600083018461100d565b92915050565b600060608201905061110b600083018661100d565b818103602083015261111d8185610f5c565b905081810360408301526111318184610f5c565b9050949350505050565b6000611145611156565b90506111518282611296565b919050565b6000604051905090565b600067ffffffffffffffff82111561117b5761117a61139d565b5b611184826113e0565b9050602081019050919050565b6000819050602082019050919050565b600081519050919050565b600081519050919050565b6000602082019050919050565b600082825260208201905092915050565b600082825260208201905092915050565b60006111f1826111f8565b9050919050565b600073ffffffffffffffffffffffffffffffffffffffff82169050919050565b6000819050919050565b82818337600083830152505050565b60005b8381101561124f578082015181840152602081019050611234565b8381111561125e576000848401525b50505050565b6000600282049050600182168061127c57607f821691505b602082108114156112905761128f61133f565b5b50919050565b61129f826113e0565b810181811067ffffffffffffffff821117156112be576112bd61139d565b5b80604052505050565b60006112d282611218565b91507fffffffffffffffffffffffffffffffffffffffffffffffffffffffffffffffff82141561130557611304611310565b5b600182019050919050565b7f4e487b7100000000000000000000000000000000000000000000000000000000600052601160045260246000fd5b7f4e487b7100000000000000000000000000000000000000000000000000000000600052602260045260246000fd5b7f4e487b7100000000000000000000000000000000000000000000000000000000600052603260045260246000fd5b7f4e487b7100000000000000000000000000000000000000000000000000000000600052604160045260246000fd5b600080fd5b600080fd5b600080fd5b600080fd5b6000601f19601f8301169050919050565b7f616c726561647920726567697374657265640000000000000000000000000000600082015250565b7f4e6f7420616c6c6f776564000000000000000000000000000000000000000000600082015250565b7f636f7572736520646f6573206e6f742065786973742e00000000000000000000600082015250565b61147581611218565b811461148057600080fd5b5056fea26469706673582212206c34e2d847d2778e3a5b6bd18338fe3bc597957b2525fc93ac08e25610a5fb2f64736f6c63430008060033",
  "immutableReferences": {},
  "source": "// SPDX-License-Identifier: MIT\npragma solidity 0.8.6;\n\ncontract Authentication {\n    uint256 public nbOfUsers;\n\n    struct User {\n        string signatureHash;\n        address userAddress;\n    }\nstruct CourseDetails {\n        uint256 id;\n        string class;\n        string subject;\n    }\n    \n    //create struct type array to store values\n    CourseDetails[] public courseDetails;\n    uint256 nextId = 1;\n\n    function find(uint256 _id) public view returns (uint256) {\n        for (uint256 i; i < courseDetails.length; i++) {\n            if (courseDetails[i].id == _id) return i;\n        }\n        revert(\"course does not exist.\");\n    }\n\n    function insertCourse(\n        string memory _class,\n        string memory _subject\n        // string memory _company\n    ) public {\n        courseDetails.push(CourseDetails(nextId, _class, _subject));\n        nextId++;\n    }\n\n     function getCourseIds() public view returns (uint[] memory) {\n        uint[] memory result = new uint[](courseDetails.length);\n        for (uint i = 0; i < courseDetails.length; i++) {\n            result[i] = courseDetails[i].id;\n        }\n        return result;\n    }\n\n    function readCourseById(uint256 _id)\n        public\n        view\n        returns (uint256, string memory, string memory)\n    {\n        uint256 i = find(_id);\n        return (\n            courseDetails[i].id,\n            courseDetails[i].class,\n            courseDetails[i].subject\n        );\n    }\n\n    function updateCourseById(\n        uint256 _id,\n        string memory _class,\n        string memory _subject\n    ) public {\n        uint256 i = find(_id);\n        courseDetails[i].class = _class;\n        courseDetails[i].subject = _subject;\n      \n    }\n\n    function DeleteCourseById(uint256 _id) public returns (uint256) {\n        uint256 i = find(_id);\n        delete courseDetails[i];\n    }\n    mapping(address => User) private user;\n\n    constructor() {\n        nbOfUsers = 0;\n    }\n\n    function register(string memory _signature) public {\n        require(\n            user[msg.sender].userAddress ==\n                address(0x0000000000000000000000000000000000000000),\n            \"already registered\"\n        );\n\n        user[msg.sender].signatureHash = _signature;\n        user[msg.sender].userAddress = msg.sender;\n        nbOfUsers++;\n    }\n\n    function getSignatureHash() public view returns (string memory) {\n        require(msg.sender == user[msg.sender].userAddress, \"Not allowed\");\n\n        return user[msg.sender].signatureHash;\n    }\n\n    function getUserAddress() public view returns (address) {\n        return user[msg.sender].userAddress;\n    }\n}\n",
  "sourcePath": "C:\\Users\\sarik\\Downloads\\screeno-landing\\screeno-landing\\contracts\\Authentication.sol",
  "compiler": {
    "name": "solc",
    "version": "0.8.6+commit.11564f7e.Emscripten.clang"
  },
  "schemaVersion": "3.4.13",
  "updatedAt": "2023-04-21T11:49:34.842Z",
  "devdoc": {
    "kind": "dev",
    "methods": {},
    "version": 1
  },
  "userdoc": {
    "kind": "user",
    "methods": {},
    "version": 1
  }
}